{
  "_format": "hh-sol-artifact-1",
  "contractName": "Voting",
  "sourceName": "contracts/voting.sol",
  "abi": [
    {
      "inputs": [],
      "stateMutability": "nonpayable",
      "type": "constructor"
    },
    {
      "inputs": [
        {
          "internalType": "string",
          "name": "_name",
          "type": "string"
        }
      ],
      "name": "addCandidate",
      "outputs": [],
      "stateMutability": "nonpayable",
      "type": "function"
    },
    {
      "inputs": [
        {
          "internalType": "uint256",
          "name": "",
          "type": "uint256"
        }
      ],
      "name": "candidates",
      "outputs": [
        {
          "internalType": "uint256",
          "name": "id",
          "type": "uint256"
        },
        {
          "internalType": "string",
          "name": "name",
          "type": "string"
        },
        {
          "internalType": "uint256",
          "name": "numbersofVotes",
          "type": "uint256"
        }
      ],
      "stateMutability": "view",
      "type": "function"
    },
    {
      "inputs": [],
      "name": "checkElectionPeriod",
      "outputs": [
        {
          "internalType": "bool",
          "name": "",
          "type": "bool"
        }
      ],
      "stateMutability": "nonpayable",
      "type": "function"
    },
    {
      "inputs": [],
      "name": "electionStarted",
      "outputs": [
        {
          "internalType": "bool",
          "name": "",
          "type": "bool"
        }
      ],
      "stateMutability": "view",
      "type": "function"
    },
    {
      "inputs": [],
      "name": "electionTimer",
      "outputs": [
        {
          "internalType": "uint256",
          "name": "",
          "type": "uint256"
        }
      ],
      "stateMutability": "view",
      "type": "function"
    },
    {
      "inputs": [
        {
          "internalType": "uint256",
          "name": "",
          "type": "uint256"
        }
      ],
      "name": "listofVoters",
      "outputs": [
        {
          "internalType": "address",
          "name": "",
          "type": "address"
        }
      ],
      "stateMutability": "view",
      "type": "function"
    },
    {
      "inputs": [],
      "name": "owner",
      "outputs": [
        {
          "internalType": "address",
          "name": "",
          "type": "address"
        }
      ],
      "stateMutability": "view",
      "type": "function"
    },
    {
      "inputs": [],
      "name": "resetAllVotersStatus",
      "outputs": [],
      "stateMutability": "nonpayable",
      "type": "function"
    },
    {
      "inputs": [],
      "name": "retrieveVotes",
      "outputs": [
        {
          "components": [
            {
              "internalType": "uint256",
              "name": "id",
              "type": "uint256"
            },
            {
              "internalType": "string",
              "name": "name",
              "type": "string"
            },
            {
              "internalType": "uint256",
              "name": "numbersofVotes",
              "type": "uint256"
            }
          ],
          "internalType": "struct Voting.Candidate[]",
          "name": "",
          "type": "tuple[]"
        }
      ],
      "stateMutability": "view",
      "type": "function"
    },
    {
      "inputs": [
        {
          "internalType": "string[]",
          "name": "_candidates",
          "type": "string[]"
        },
        {
          "internalType": "uint256",
          "name": "_votingDuration",
          "type": "uint256"
        }
      ],
      "name": "startElection",
      "outputs": [],
      "stateMutability": "nonpayable",
      "type": "function"
    },
    {
      "inputs": [
        {
          "internalType": "address",
          "name": "",
          "type": "address"
        }
      ],
      "name": "verifiedVoters",
      "outputs": [
        {
          "internalType": "bool",
          "name": "",
          "type": "bool"
        }
      ],
      "stateMutability": "view",
      "type": "function"
    },
    {
      "inputs": [
        {
          "internalType": "address",
          "name": "_voter",
          "type": "address"
        }
      ],
      "name": "verifyVoter",
      "outputs": [],
      "stateMutability": "nonpayable",
      "type": "function"
    },
    {
      "inputs": [
        {
          "internalType": "uint256",
          "name": "_id",
          "type": "uint256"
        }
      ],
      "name": "voteTo",
      "outputs": [],
      "stateMutability": "nonpayable",
      "type": "function"
    },
    {
      "inputs": [
        {
          "internalType": "address",
          "name": "_voter",
          "type": "address"
        }
      ],
      "name": "voterStatus",
      "outputs": [
        {
          "internalType": "bool",
          "name": "",
          "type": "bool"
        }
      ],
      "stateMutability": "view",
      "type": "function"
    },
    {
      "inputs": [
        {
          "internalType": "address",
          "name": "",
          "type": "address"
        }
      ],
      "name": "voters",
      "outputs": [
        {
          "internalType": "bool",
          "name": "",
          "type": "bool"
        }
      ],
      "stateMutability": "view",
      "type": "function"
    },
    {
      "inputs": [],
      "name": "votingEnd",
      "outputs": [
        {
          "internalType": "uint256",
          "name": "",
          "type": "uint256"
        }
      ],
      "stateMutability": "view",
      "type": "function"
    },
    {
      "inputs": [],
      "name": "votingStart",
      "outputs": [
        {
          "internalType": "uint256",
          "name": "",
          "type": "uint256"
        }
      ],
      "stateMutability": "view",
      "type": "function"
    }
  ],
  "bytecode": "0x608060405234801561001057600080fd5b5033600160006101000a81548173ffffffffffffffffffffffffffffffffffffffff021916908373ffffffffffffffffffffffffffffffffffffffff160217905550611d79806100616000396000f3fe608060405234801561001057600080fd5b506004361061010b5760003560e01c8063462e91ec116100a2578063a3ec138d11610071578063a3ec138d14610282578063d4a6cac8146102b2578063d5346da1146102d0578063d63bdb95146102ee578063f68ad2b11461031e5761010b565b8063462e91ec146101fa578063576cc4f21461021657806385a38635146102465780638da5cb5b146102645761010b565b80631bc423eb116100de5780631bc423eb146101845780633477ee2e1461018e5780633c9a4df3146101c05780633d7b995c146101de5761010b565b8063031e50041461011057806309bd09501461012e5780630b56a6811461014a578063101158af14610166575b600080fd5b61011861034e565b604051610125919061117b565b60405180910390f35b6101486004803603810190610143919061120f565b610453565b005b610164600480360381019061015f9190611483565b6104ae565b005b61016e610692565b60405161017b91906114ee565b60405180910390f35b61018c610698565b005b6101a860048036038101906101a39190611509565b6107f2565b6040516101b793929190611580565b60405180910390f35b6101c86108b4565b6040516101d591906114ee565b60405180910390f35b6101f860048036038101906101f39190611509565b61092b565b005b610214600480360381019061020f91906115be565b610b8f565b005b610230600480360381019061022b919061120f565b610d30565b60405161023d9190611622565b60405180910390f35b61024e610dec565b60405161025b91906114ee565b60405180910390f35b61026c610df2565b604051610279919061164c565b60405180910390f35b61029c6004803603810190610297919061120f565b610e18565b6040516102a99190611622565b60405180910390f35b6102ba610e38565b6040516102c79190611622565b60405180910390f35b6102d8610e75565b6040516102e59190611622565b60405180910390f35b61030860048036038101906103039190611509565b610e88565b604051610315919061164c565b60405180910390f35b6103386004803603810190610333919061120f565b610ec7565b6040516103459190611622565b60405180910390f35b60606000805480602002602001604051908101604052809291908181526020016000905b8282101561044a5783829060005260206000209060030201604051806060016040529081600082015481526020016001820180546103af90611696565b80601f01602080910402602001604051908101604052809291908181526020018280546103db90611696565b80156104285780601f106103fd57610100808354040283529160200191610428565b820191906000526020600020905b81548152906001019060200180831161040b57829003601f168201915b5050505050815260200160028201548152505081526020019060010190610372565b50505050905090565b6001600760008373ffffffffffffffffffffffffffffffffffffffff1673ffffffffffffffffffffffffffffffffffffffff16815260200190815260200160002060006101000a81548160ff02191690831515021790555050565b600160009054906101000a900473ffffffffffffffffffffffffffffffffffffffff1673ffffffffffffffffffffffffffffffffffffffff163373ffffffffffffffffffffffffffffffffffffffff161461053e576040517f08c379a000000000000000000000000000000000000000000000000000000000815260040161053590611739565b60405180910390fd5b60001515600660009054906101000a900460ff16151514610594576040517f08c379a000000000000000000000000000000000000000000000000000000000815260040161058b906117a5565b60405180910390fd5b6000806105a19190610ee7565b60005b825181101561064d57600060405180606001604052808381526020018584815181106105d3576105d26117c5565b5b602002602001015181526020016000815250908060018154018082558091505060019003906000526020600020906003020160009091909190915060008201518160000155602082015181600101908161062d91906119a0565b50604082015181600201555050808061064590611aa1565b9150506105a4565b506001600660006101000a81548160ff02191690831515021790555042600481905550603c8161067d9190611ae9565b426106889190611b2b565b6005819055505050565b60045481565b600160009054906101000a900473ffffffffffffffffffffffffffffffffffffffff1673ffffffffffffffffffffffffffffffffffffffff163373ffffffffffffffffffffffffffffffffffffffff1614610728576040517f08c379a000000000000000000000000000000000000000000000000000000000815260040161071f90611739565b60405180910390fd5b60005b6003805490508110156107e15760006002600060038481548110610752576107516117c5565b5b9060005260206000200160009054906101000a900473ffffffffffffffffffffffffffffffffffffffff1673ffffffffffffffffffffffffffffffffffffffff1673ffffffffffffffffffffffffffffffffffffffff16815260200190815260200160002060006101000a81548160ff02191690831515021790555080806107d990611aa1565b91505061072b565b50600360006107f09190610f0b565b565b6000818154811061080257600080fd5b906000526020600020906003020160009150905080600001549080600101805461082b90611696565b80601f016020809104026020016040519081016040528092919081815260200182805461085790611696565b80156108a45780601f10610879576101008083540402835291602001916108a4565b820191906000526020600020905b81548152906001019060200180831161088757829003601f168201915b5050505050908060020154905083565b6000600660009054906101000a900460ff16610905576040517f08c379a00000000000000000000000000000000000000000000000000000000081526004016108fc90611bab565b60405180910390fd5b60055442106109175760009050610928565b426005546109259190611bcb565b90505b90565b600660009054906101000a900460ff1661097a576040517f08c379a000000000000000000000000000000000000000000000000000000000815260040161097190611bab565b60405180910390fd5b610982610e38565b6109c1576040517f08c379a00000000000000000000000000000000000000000000000000000000081526004016109b890611c4b565b60405180910390fd5b6109ca33610d30565b15610a0a576040517f08c379a0000000000000000000000000000000000000000000000000000000008152600401610a0190611cb7565b60405180910390fd5b600760003373ffffffffffffffffffffffffffffffffffffffff1673ffffffffffffffffffffffffffffffffffffffff16815260200190815260200160002060009054906101000a900460ff16610a96576040517f08c379a0000000000000000000000000000000000000000000000000000000008152600401610a8d90611d23565b60405180910390fd5b60008181548110610aaa57610aa96117c5565b5b90600052602060002090600302016002016000815480929190610acc90611aa1565b91905055506001600260003373ffffffffffffffffffffffffffffffffffffffff1673ffffffffffffffffffffffffffffffffffffffff16815260200190815260200160002060006101000a81548160ff0219169083151502179055506003339080600181540180825580915050600190039060005260206000200160009091909190916101000a81548173ffffffffffffffffffffffffffffffffffffffff021916908373ffffffffffffffffffffffffffffffffffffffff16021790555050565b600160009054906101000a900473ffffffffffffffffffffffffffffffffffffffff1673ffffffffffffffffffffffffffffffffffffffff163373ffffffffffffffffffffffffffffffffffffffff1614610c1f576040517f08c379a0000000000000000000000000000000000000000000000000000000008152600401610c1690611739565b60405180910390fd5b600660009054906101000a900460ff16610c6e576040517f08c379a0000000000000000000000000000000000000000000000000000000008152600401610c6590611bab565b60405180910390fd5b610c76610e38565b610cb5576040517f08c379a0000000000000000000000000000000000000000000000000000000008152600401610cac90611c4b565b60405180910390fd5b60006040518060600160405280600080549050815260200183815260200160008152509080600181540180825580915050600190039060005260206000209060030201600090919091909150600082015181600001556020820151816001019081610d2091906119a0565b5060408201518160020155505050565b6000600660009054906101000a900460ff16610d81576040517f08c379a0000000000000000000000000000000000000000000000000000000008152600401610d7890611bab565b60405180910390fd5b60011515600260008473ffffffffffffffffffffffffffffffffffffffff1673ffffffffffffffffffffffffffffffffffffffff16815260200190815260200160002060009054906101000a900460ff16151503610de25760019050610de7565b600090505b919050565b60055481565b600160009054906101000a900473ffffffffffffffffffffffffffffffffffffffff1681565b60026020528060005260406000206000915054906101000a900460ff1681565b600080610e436108b4565b1115610e525760019050610e72565b6000600660006101000a81548160ff021916908315150217905550600090505b90565b600660009054906101000a900460ff1681565b60038181548110610e9857600080fd5b906000526020600020016000915054906101000a900473ffffffffffffffffffffffffffffffffffffffff1681565b60076020528060005260406000206000915054906101000a900460ff1681565b5080546000825560030290600052602060002090810190610f089190610f2c565b50565b5080546000825590600052602060002090810190610f299190610f63565b50565b5b80821115610f5f57600080820160009055600182016000610f4e9190610f80565b600282016000905550600301610f2d565b5090565b5b80821115610f7c576000816000905550600101610f64565b5090565b508054610f8c90611696565b6000825580601f10610f9e5750610fbd565b601f016020900490600052602060002090810190610fbc9190610f63565b5b50565b600081519050919050565b600082825260208201905092915050565b6000819050602082019050919050565b6000819050919050565b610fff81610fec565b82525050565b600081519050919050565b600082825260208201905092915050565b60005b8381101561103f578082015181840152602081019050611024565b60008484015250505050565b6000601f19601f8301169050919050565b600061106782611005565b6110718185611010565b9350611081818560208601611021565b61108a8161104b565b840191505092915050565b60006060830160008301516110ad6000860182610ff6565b50602083015184820360208601526110c5828261105c565b91505060408301516110da6040860182610ff6565b508091505092915050565b60006110f18383611095565b905092915050565b6000602082019050919050565b600061111182610fc0565b61111b8185610fcb565b93508360208202850161112d85610fdc565b8060005b85811015611169578484038952815161114a85826110e5565b9450611155836110f9565b925060208a01995050600181019050611131565b50829750879550505050505092915050565b600060208201905081810360008301526111958184611106565b905092915050565b6000604051905090565b600080fd5b600080fd5b600073ffffffffffffffffffffffffffffffffffffffff82169050919050565b60006111dc826111b1565b9050919050565b6111ec816111d1565b81146111f757600080fd5b50565b600081359050611209816111e3565b92915050565b600060208284031215611225576112246111a7565b5b6000611233848285016111fa565b91505092915050565b600080fd5b7f4e487b7100000000000000000000000000000000000000000000000000000000600052604160045260246000fd5b6112798261104b565b810181811067ffffffffffffffff8211171561129857611297611241565b5b80604052505050565b60006112ab61119d565b90506112b78282611270565b919050565b600067ffffffffffffffff8211156112d7576112d6611241565b5b602082029050602081019050919050565b600080fd5b600080fd5b600067ffffffffffffffff82111561130d5761130c611241565b5b6113168261104b565b9050602081019050919050565b82818337600083830152505050565b6000611345611340846112f2565b6112a1565b905082815260208101848484011115611361576113606112ed565b5b61136c848285611323565b509392505050565b600082601f8301126113895761138861123c565b5b8135611399848260208601611332565b91505092915050565b60006113b56113b0846112bc565b6112a1565b905080838252602082019050602084028301858111156113d8576113d76112e8565b5b835b8181101561141f57803567ffffffffffffffff8111156113fd576113fc61123c565b5b80860161140a8982611374565b855260208501945050506020810190506113da565b5050509392505050565b600082601f83011261143e5761143d61123c565b5b813561144e8482602086016113a2565b91505092915050565b61146081610fec565b811461146b57600080fd5b50565b60008135905061147d81611457565b92915050565b6000806040838503121561149a576114996111a7565b5b600083013567ffffffffffffffff8111156114b8576114b76111ac565b5b6114c485828601611429565b92505060206114d58582860161146e565b9150509250929050565b6114e881610fec565b82525050565b600060208201905061150360008301846114df565b92915050565b60006020828403121561151f5761151e6111a7565b5b600061152d8482850161146e565b91505092915050565b600082825260208201905092915050565b600061155282611005565b61155c8185611536565b935061156c818560208601611021565b6115758161104b565b840191505092915050565b600060608201905061159560008301866114df565b81810360208301526115a78185611547565b90506115b660408301846114df565b949350505050565b6000602082840312156115d4576115d36111a7565b5b600082013567ffffffffffffffff8111156115f2576115f16111ac565b5b6115fe84828501611374565b91505092915050565b60008115159050919050565b61161c81611607565b82525050565b60006020820190506116376000830184611613565b92915050565b611646816111d1565b82525050565b6000602082019050611661600083018461163d565b92915050565b7f4e487b7100000000000000000000000000000000000000000000000000000000600052602260045260246000fd5b600060028204905060018216806116ae57607f821691505b6020821081036116c1576116c0611667565b5b50919050565b7f6f6e6c79206f776e65722063616e2063616c6c20746869732066756e6374696f60008201527f6e00000000000000000000000000000000000000000000000000000000000000602082015250565b6000611723602183611536565b915061172e826116c7565b604082019050919050565b6000602082019050818103600083015261175281611716565b9050919050565b7f656c656374696f6e20616c726561647920737461727465640000000000000000600082015250565b600061178f601883611536565b915061179a82611759565b602082019050919050565b600060208201905081810360008301526117be81611782565b9050919050565b7f4e487b7100000000000000000000000000000000000000000000000000000000600052603260045260246000fd5b60008190508160005260206000209050919050565b60006020601f8301049050919050565b600082821b905092915050565b6000600883026118567fffffffffffffffffffffffffffffffffffffffffffffffffffffffffffffffff82611819565b6118608683611819565b95508019841693508086168417925050509392505050565b6000819050919050565b600061189d61189861189384610fec565b611878565b610fec565b9050919050565b6000819050919050565b6118b783611882565b6118cb6118c3826118a4565b848454611826565b825550505050565b600090565b6118e06118d3565b6118eb8184846118ae565b505050565b5b8181101561190f576119046000826118d8565b6001810190506118f1565b5050565b601f82111561195457611925816117f4565b61192e84611809565b8101602085101561193d578190505b61195161194985611809565b8301826118f0565b50505b505050565b600082821c905092915050565b600061197760001984600802611959565b1980831691505092915050565b60006119908383611966565b9150826002028217905092915050565b6119a982611005565b67ffffffffffffffff8111156119c2576119c1611241565b5b6119cc8254611696565b6119d7828285611913565b600060209050601f831160018114611a0a57600084156119f8578287015190505b611a028582611984565b865550611a6a565b601f198416611a18866117f4565b60005b82811015611a4057848901518255600182019150602085019450602081019050611a1b565b86831015611a5d5784890151611a59601f891682611966565b8355505b6001600288020188555050505b505050505050565b7f4e487b7100000000000000000000000000000000000000000000000000000000600052601160045260246000fd5b6000611aac82610fec565b91507fffffffffffffffffffffffffffffffffffffffffffffffffffffffffffffffff8203611ade57611add611a72565b5b600182019050919050565b6000611af482610fec565b9150611aff83610fec565b9250828202611b0d81610fec565b91508282048414831517611b2457611b23611a72565b5b5092915050565b6000611b3682610fec565b9150611b4183610fec565b9250828201905080821115611b5957611b58611a72565b5b92915050565b7f6e6f20656c656374696f6e206973206f6e676f696e6700000000000000000000600082015250565b6000611b95601683611536565b9150611ba082611b5f565b602082019050919050565b60006020820190508181036000830152611bc481611b88565b9050919050565b6000611bd682610fec565b9150611be183610fec565b9250828203905081811115611bf957611bf8611a72565b5b92915050565b7f656c656374696f6e20706572696f642068617320656e64656400000000000000600082015250565b6000611c35601983611536565b9150611c4082611bff565b602082019050919050565b60006020820190508181036000830152611c6481611c28565b9050919050565b7f796f75206861766520616c726561647920766f74656400000000000000000000600082015250565b6000611ca1601683611536565b9150611cac82611c6b565b602082019050919050565b60006020820190508181036000830152611cd081611c94565b9050919050565b7f566f746572206e6f742076657269666965640000000000000000000000000000600082015250565b6000611d0d601283611536565b9150611d1882611cd7565b602082019050919050565b60006020820190508181036000830152611d3c81611d00565b905091905056fea2646970667358221220f0ce8f578192664c23b4e58a88ffc18e21a4d27e6a0f5084bf9602b06cb99d8564736f6c63430008130033",
  "linkReferences": {},
  "deployedLinkReferences": {}
}